:020000040800F2
:1000000000000520956100089D0E00089F0E000865
:10001000A10E0008A30E0008A50E000800000000B5
:10002000000000000000000000000000A70E000813
:10003000A90E000800000000AB0E0008AD0E00087D
:10004000E5610008E5610008E5610008E561000878
:10005000E5610008B50E0008E5610008B70E00086C
:10006000E5610008E5610008C10E0008E5610008CF
:10007000E5610008E5610008E5610008E561000848
:10008000E5610008E5610008CD0E0008E5610008A3
:10009000DD0E0008E5610008E5610008ED0E0008CE
:1000A000E5610008E5610008E5610008E561000818
:1000B000F90E0008E5610008E5610008E561000847
:1000C000E5610008E5610008E5610008E5610008F8
:1000D000E5610008E5610008E5610008E5610008E8
:1000E000090F0008E5610008E5610008E561000806
:1000F000E5610008E5610008E5610008E5610008C8
:10010000E5610008E5610008E5610008E5610008B7
:10011000E5610008E5610008E5610008E5610008A7
:10012000E5610008E5610008E5610008E561000897
:10013000E5610008E5610008E5610008E561000887
:10014000E5610008E5610008E5610008E561000877
:10015000E5610008E5610008E5610008E561000867
:10016000E5610008E5610008E5610008E561000857
:10017000E5610008E56100080000000000000000E3
:10018000E5610008E5610008E5610008E561000837
:10019000E5610008E561000800000000E561000875
:1001A000E56100081D0F00080000000000000000CD
:1001B000E56100080000000000000000E5610008A3
:1001C000E5610008E5610008E5610008E5610008F7
:0801D000E5610008E56100088B
:1001E00010B5054C237833B9044B13B10448AFF371
:1001F00000800123237010BD70000020000000006B
:10020000CC6A000808B5034B1BB103490348AFF3A0
:10021000008008BD0000000074000020CC6A0008C7
:1002200053B94AB9002908BF00281CBF4FF0FF315D
:100230004FF0FF3000F072B9ADF1080C6DE904CE5B
:1002400000F006F8DDF804E0DDE9022304B07047B1
:100250002DE9F047089E04468846002B4BD18A4280
:10026000154667D9B2FA82F24AB1C2F1200701FA03
:1002700002F320FA07F7954047EA030894404FEA53
:10028000154E230CB8FBFEF71FFA85FC0EFB1788F2
:1002900043EA084307FB0CF1994209D9EB1807F12F
:1002A000FF3080F01B81994240F21881023F2B44BD
:1002B0005B1AA4B2B3FBFEF00EFB103344EA034416
:1002C00000FB0CFCA44509D92C1900F1FF3380F088
:1002D0000781A44540F2048102382C4440EA0740DB
:1002E000A4EB0C0400271EB1D4400023C6E9004350
:1002F0003946BDE8F0878B4209D9002E00F0EB802B
:100300000027C6E9000138463946BDE8F087B3FA50
:1003100083F7002F47D18B4202D3824200F2FA804A
:10032000841A61EB030301209846002EE0D0C6E951
:100330000048DDE702B9FFDEB2FA82F2002A40F09F
:100340008F80491B4FEA154E1FFA85F80127B1FB34
:10035000FEFC230C0EFB1C1143EA014308FB0CF1CD
:10036000994207D9EB180CF1FF3002D2994200F202
:10037000CD808446591AA3B2B1FBFEF00EFB1014D7
:1003800043EA044408FB00F8A04507D92C1900F102
:10039000FF3302D2A04500F2B6801846A4EB080451
:1003A00040EA0C409FE7C7F1200CBB4022FA0CFE4C
:1003B0004EEA030E01FA07F420FA0CF521FA0CF3C9
:1003C0004FEA1E482543B3FBF8F92C0C08FB193300
:1003D0001FFA8EFA44EA034309FB0AF49C4202FA2C
:1003E00007F200FA07F10BD91EEB030309F1FF3006
:1003F00080F087809C4240F28480A9F10209734416
:100400001B1BADB2B3FBF8F008FB103345EA034405
:1004100000FB0AFAA24508D91EEB040400F1FF33E1
:100420006BD2A24569D90238744440EA0940A0FB66
:100430000289A4EB0A044C45C2464B4654D351D022
:10044000002E69D0B1EB0A0564EB030404FA0CFC3E
:10045000FD40FC404CEA0505C6E90054002747E78B
:10046000C2F1200320FA03F7954001FA02F021FAC5
:1004700003F34FEA154E3843010CB3FBFEF71FFAA6
:1004800085F80EFB173341EA034107FB08F38B4263
:1004900004FA02F407D9691807F1FF3C2FD28B4206
:1004A0002DD9023F2944CB1A81B2B3FBFEF00EFBDB
:1004B000103341EA034100FB08F38B4207D9691866
:1004C00000F1FF3C17D28B4215D902382944C91AD2
:1004D00040EA07473BE73746304609E70746E7E685
:1004E0001846FBE64145ABD2B8EB020A69EB0E02B7
:1004F00001381346A4E76046E9E7184695E76746E2
:10050000D1E781467CE702382C4447E7ACF1020C86
:100510002B442FE7384608E73746E9E6704700BF27
:10052000034613F8012B002AFBD1181A0138704733
:1005300001F0FF01102A2BDB10F0070F08D010F894
:10054000013B013A8B422DD010F0070F42B3F6D198
:10055000F0B441EA012141EA014122F007047FF0B1
:1005600000070023F0E80256083C85EA010586EA08
:10057000010685FA47F5A3FA87F586FA47F6A5FA44
:1005800087F68EB9EED1F0BC01F0FF0102F0070250
:1005900032B110F8013B013A83EA010313B1F8D1FB
:1005A0000020704701387047002D06BF35460338DC
:1005B000073815F0010F07D1013015F4807F02BF15
:1005C000013015F4C03F0130F0BC0138704700BF66
:1005D00010B58CB00024089409940A940B9420223E
:1005E0002146684605F02AFE6F48704B0360446060
:1005F000846001230361037680F82040C46203F124
:1006000070638362C4600C23C36180F8304044612E
:1006100001F018F9002840F0938002230893012389
:10062000099300230A9308A95F4801F0C1FB002841
:1006300040F089800223099308A95B4801F0B8FBC8
:10064000002840F083800323099308A9564801F04D
:10065000AFFB00287DD10423099308A9524801F07B
:10066000A7FB002878D10523099308A94E4801F07B
:100670009FFB002873D10623099308A94A4801F07B
:1006800097FB00286ED10723099308A9464801F07B
:100690008FFB002869D10823099308A9424801F07B
:1006A00087FB002864D10923099308A93E4801F07B
:1006B0007FFB00285FD10A23099308A93A4801F07B
:1006C00077FB00285AD10B23099308A9364801F07B
:1006D0006FFB002855D10C23099308A9324801F07B
:1006E00067FB002850D102230093012301930423C8
:1006F00004930023029307932D4A06928DF8153038
:100700008DF8143003936946274801F043FC002814
:100710003DD1022301936946234801F03BFCC8BB4D
:10072000032301936946204801F034FCA8BB04234D
:10073000019369461C4801F02DFC88BB0CB010BD2C
:1007400000F058FA69E700F055FA73E700F052FA42
:1007500079E700F04FFA7EE700F04CFA83E700F00B
:1007600049FA88E700F046FA8DE700F043FA92E78D
:1007700000F040FA97E700F03DFA9CE700F03AFA03
:10078000A1E700F037FAA6E700F034FAABE700F093
:1007900031FABEE700F02EFAC2E700F02BFAC6E706
:1007A00000F028FACAE700BF6C01002000200140D9
:1007B00001000F0010B588B0002303930493059344
:1007C00006930793026803F1804303F590339A423E
:1007D00001D008B010BD0024019403F58C335A6C8D
:1007E00042F480725A645A6C02F480720192019A47
:1007F00002941A6B42F001021A631B6B03F00103AF
:100800000293029B042303930323049303A9064842
:1008100002F0B0FB22462146122002F023FB1220F8
:1008200002F066FBD5E700BF0000024008B50D48A6
:100830000D4B03600423436000238360C3604FF4C7
:10084000402202614FF48012426103764376837640
:10085000C3760377437701F05FFD00B908BD00F070
:10086000C9F9FBE7B40100200064004010B588B06E
:100870000023039304930593069307930268184B90
:100880009A4201D008B010BD0024019403F5EA3368
:100890001A6C42F000721A641A6C02F00072019233
:1008A000019A02941A6B42F040021A631B6B03F028
:1008B00040030293029B03230393022204920693B4
:1008C0000923079303A9074802F054FB2246214657
:1008D000142002F0C7FA142002F00AFBD2E700BF8E
:1008E00000640040001802402DE9F04F8FB0002452
:1008F00009940A940B940C940D9401949D4B1A6BDB
:1009000042F010021A631A6B02F010020192019A6F
:1009100002941A6B42F004021A631A6B02F004028A
:100920000292029A03941A6B42F020021A631A6B25
:1009300002F020020392039A04941A6B42F08002A0
:100940001A631A6B02F080020492049A05941A6BDF
:1009500042F001021A631A6B02F001020592059A35
:1009600006941A6B42F002021A631A6B02F002023A
:100970000692069A07941A6B42F040021A631A6BA9
:1009800002F040020792079A08941A6B42F008029C
:100990001A631B6B03F008030893089B764F2246EB
:1009A000C021384602F050FCDFF8DCB1224620219D
:1009B000584602F049FCDFF8D481224644F2850112
:1009C000404602F041FCDFF8C8A122464FF4A041A6
:1009D000504602F039FCDFF8BC91224640214846DF
:1009E00002F032FC4BF67F73099303250A950B94B2
:1009F00009A9624802F0BEFA43F6CF7309930A953B
:100A00000B9409A9584602F0B5FA48F2FF7309930E
:100A10000A950B9409A9504602F0ACFA48F2030378
:100A200009930A950B9409A9384602F0A3FA3023DA
:100A300009930A940B9409A9384602F09BFAC02343
:100A4000099301260A960B940C9409A9384602F0E2
:100A500091FA102309934A4F0A970B9409A9584613
:100A600002F088FA202309930A960B940C9409A9A2
:100A7000584602F07FFA44F2850309930A960B94D4
:100A80000C9409A9404602F075FA022309930A97CB
:100A90000B9409A9404602F06DFA4FF420530993D4
:100AA0000A970B9409A9504602F064FA4FF4A04348
:100AB00009930A960B940C9409A9504602F05AFA2D
:100AC0004FF0800ACDF824A00A970B9409A92B486F
:100AD00002F050FA4BF6707309930A950B9409A92A
:100AE000404602F047FA4FF6FF4309930A950B94EC
:100AF00009A9244802F03EFA4EF23C7309930A9584
:100B00000B9409A9484602F035FA402309930A9646
:100B10000B940C9409A9484602F02CFACDF824A0B5
:100B20000A940B9409A9484602F024FA2246214669
:100B3000072002F097F9072002F0DAF92246214651
:100B40000A2002F08FF90A2002F0D2F9224621464B
:100B5000172002F087F9172002F0CAF92246214631
:100B6000282002F07FF9282002F0C2F90FB0BDE87A
:100B7000F08F00BF00380240000002400010024029
:100B800000001110000C0240000802400004024066
:100B9000001402400018024010B50446102808D086
:100BA000022C0CD0B4F5006F0FD0B4F5005F13D059
:100BB00010BD012220210C4802F046FBF0E7012283
:100BC00004210A4802F040FBECE701224FF4805177
:100BD000074802F039FBE8E701224FF4804104485E
:100BE00002F032FBE4E700BF0008024000040240CC
:100BF0000014024072B6FEE710B5AAB034220021FC
:100C00001DA805F01BFB0024189419941A941B943A
:100C10001C945822214602A805F010FB254B5A6867
:100C200042F480025A6000941A6C42F080521A64B6
:100C30001B6C03F080530093009B01941E4B1A68B9
:100C400042F440421A601B6803F440430193019B45
:100C500001231D934FF480331E9323941DA803F0AA
:100C600009F900BB0F2318930121199100231A934E
:100C70001B931C9318A802F01DFCB0B9202302930B
:100C8000482304930D230393022306930323059320
:100C90004FF000630E930023169302A802F03EFD6E
:100CA00028B92AB010BDFFF7A5FFFFF7A3FFFFF794
:100CB000A1FF00BF0038024000700040F0B59BB0BB
:100CC00000F0D8FCFFF798FFFFF70EFEFFF780FC5F
:100CD000FFF7ACFD00F09AFA00F0EEFA00F006FB28
:100CE00000F08CFB00F01EFA00F04CF900F0E6FB7F
:100CF000524B93E803001AAB03E9030028E01021EC
:100D00004F4802F08DFA00285BD14D4C0022402163
:100D1000204602F099FA00228021204602F094FA3F
:100D20004FE01021464802F07BFA012861D01021E3
:100D3000434802F075FA01286DD0082318AA002153
:100D40004FF4887000F0D4FB4FF47A7000F0BEFCD2
:100D50003C4C0A21204600F001FF204600F059FFDC
:100D600087B2394E3A463146684605F06FFA374D3C
:100D70002B681F64684600F039FC204600F054FEE2
:100D80006421204600F0EAFE204600F042FF2B6876
:100D900018640A21204600F0E1FE204600F039FFE9
:100DA00004460246314608A805F050FA2B681C6438
:100DB00008A800F01BFC1021214802F031FA00289D
:100DC0009DD010211E4802F02BFA0028A9D1102135
:100DD0001B4802F025FA0128A3D1194C002240211A
:100DE000204602F031FA01228021204602F02CFA3E
:100DF00097E71021124802F013FA002897D1104CFF
:100E000001224021204602F01FFA002280212046C4
:100E100002F01AFA8BE71021094802F001FA0128C2
:100E20008BD1074C01224021204602F00DFA01220D
:100E30008021204602F008FA7FE700BFE46A00083C
:100E4000000002406C010020046B000844180020E0
:100E50007047000000B583B0002100910E4B5A6C22
:100E600042F480425A645A6C02F480420092009A22
:100E700001911A6C42F080521A641B6C03F080538B
:100E80000193019B0A46052001F0ECFF052002F0CA
:100E90002FF803B05DF804FB00380240FEE7FEE7E0
:100EA000FEE7FEE7FEE770477047704708B500F0C1
:100EB000FBFB08BD704708B5022002F0E1F908BD50
:100EC00008B5102002F0DCF908BD000008B50248A2
:100ED00000F0A6FE08BD00BF6C01002008B5024866
:100EE00001F076FE08BD00BFB401002008B58020E7
:100EF00002F0C6F908BD000008B5024803F03EFB49
:100F000008BD00BF4418002008B54FF4006002F08F
:100F1000B7F94FF4005002F0B3F908BD08B5024824
:100F200004F01AFF08BD00BFC418002008B503462E
:100F30000B4A126842B10A4A106803446A46934257
:100F400006D8074A136008BD054A06491160F2E752
:100F500005F04AF90C2303604FF0FF30F3E700BFC0
:100F60008C000020301D0020054BD3F8882042F46F
:100F70007002C3F888204FF000629A60704700BF8B
:100F800000ED00E000B58BB00023089309930193B6
:100F90000293039304930593069307931548164A07
:100FA0000260436083604FF6FF72C2600361836139
:100FB00003F08AFCA8B900230893099308A90D48F7
:100FC00004F072FA80B9002301930293039305930E
:100FD0000C2201A9074803F0DFFD40B90BB05DF812
:100FE00004FBFFF707FEE6E7FFF704FEEBE7FFF77A
:100FF00001FEF3E7C41700200004004000B583B0F1
:101000000368154A934205D0B3F1804F0FD003B067
:101010005DF804FB00230093104B5A6C42F0010270
:101020005A645B6C03F001030093009BEFE700211F
:10103000019103F50E331A6C42F001021A641B6C25
:1010400003F001030193019B0A461C2001F00AFFF3
:101050001C2001F04DFFDAE700000140003802409B
:101060000268094B9A4200D0704782B00023019376
:10107000064B1A6C42F002021A641B6C03F0020366
:101080000193019B02B07047000400400038024009
:1010900000B589B000230393049305930693079347
:1010A00003681C4A934205D0B3F1804F1AD009B0AF
:1010B0005DF804FB00230193174B1A6B42F01002FA
:1010C0001A631B6B03F010030193019B4FF48043E1
:1010D0000393022304930123079303A90F4801F00C
:1010E00049FFE4E7002302930B4B1A6B42F0010225
:1010F0001A631B6B03F001030293029B0823039303
:10110000022304930123079303A9054801F032FF4A
:10111000CDE700BF0000014000380240001002404F
:101120000000024010B596B0002412941394149459
:1011300015941094119409940A940B940C940D94A2
:101140000E940F942022214601A805F077F82D482F
:101150002D4B0360446084604FF6FF73C3600461ED
:101160004461846103F02CFB002838D116A94FF4A8
:10117000805341F8103D234803F04CFF002831D143
:10118000204803F025FC00282FD100231093119351
:1011900010A91C4804F088F950BB60230993002370
:1011A0000A930B930D930E930F930C2209A91548E4
:1011B00003F0E8FDF8B9002301930293039304932D
:1011C00005934FF400520692089301A90D4804F0CC
:1011D000F7F998B90B48FFF75BFF16B010BDFFF7A2
:1011E00009FDC3E7FFF706FDCAE7FFF703FDCCE7FC
:1011F000FFF700FDD1E7FFF7FDFCDCE7FFF7FAFCA6
:10120000E8E700BF041800200000014000B58FB0DF
:1012100000230A930B930C930D9308930993019366
:1012200002930393049305930693079321484FF089
:1012300080420260436083604FF0FF32C26003610E
:10124000836103F0BDFA30BB0EA94FF4805341F81F
:10125000103D184803F0DEFE00BB164803F0B8FB53
:10126000F8B900230893099308A9124804F01CF95F
:10127000D0B96023019300230293039305930C22BA
:1012800001A90C4803F07EFD88B90A48FFF700FF6A
:101290000FB05DF804FBFFF7ADFCD5E7FFF7AAFC44
:1012A000DBE7FFF7A7FCDCE7FFF7A4FCE1E7FFF7CC
:1012B000A1FCEAE74418002008B50A480A4B03607D
:1012C0004FF4E133436000238360C36003610C2269
:1012D00042618361C36104F0CBFB00B908BDFFF735
:1012E00089FCFBE7C4180020001C014008B50A482F
:1012F0000A4B03604FF4E133436000238360C36013
:1013000003610C2242618361C36104F0B1FB00B947
:1013100008BDFFF76FFCFBE7841800200048004081
:1013200010B58AB000230593069307930893099399
:1013300003682D4A934204D02C4A93422FD00AB01E
:1013400010BD002401942A4B5A6C42F080025A646A
:101350005A6C02F080020192019A02941A6B42F0D8
:1013600040021A631B6B03F040030293029B4FF48D
:10137000C053059302230693012307930323089385
:101380000B23099305A91B4801F0F4FD22462146D1
:10139000592001F067FD592001F0AAFDCFE7002197
:1013A0000391134B1A6C42F480221A641A6C02F4F3
:1013B00080220392039A04911A6B42F008021A6386
:1013C0001B6B03F008030493049B4FF440730593D5
:1013D00002230693032308930723099305A90648CC
:1013E00001F0C8FDABE700BF001C01400048004011
:1013F0000038024000180240000C024008B50C48BA
:101400004FF0A0430360062343600222C260002322
:10141000036182610122C261036243628262C2622D
:10142000036301F03BFF00B908BDFFF7E3FBFBE7F7
:101430000419002070B588B000230393049305932A
:10144000069307930368B3F1A04F01D008B070BDB5
:1014500000250195174C236B43F001032363236B95
:1014600003F001030193019B4FF4E853039302231C
:101470000493032306930A2307930F4E03A93046D0
:1014800001F078FD4FF4007303930495059503A9CB
:10149000304601F06FFD636B43F080036363029598
:1014A000636C43F480436364636C03F4804302938E
:1014B000029BCBE7003802400000024010B582B02A
:1014C0000A4C204601F0B2F90221204601F050FBFF
:1014D0000123019300220092134640F211114FF4B0
:1014E000887000F021F802B010BD00BFB4010020E8
:1014F00010B531B1012908D109494860042088603C
:1015000003E0074908600020886005490020C860A2
:101510000B6108750123034801F0B6F910BD00BF47
:101520000C1D0020B401002000B58BB09DF83010D8
:101530009DF834000890059301230693079371B931
:101540000023049382B1012A17D10023009340F6AF
:1015500084020192029340F68C0303930DE001296B
:10156000F0D101230493EDE74FF4085300930023D7
:10157000019342F2202202920393002309936946C9
:10158000024801F043F80BB05DF804FBB401002001
:10159000134B834200D0704710B5124C2346124AB9
:1015A00000210F4801F032FA012384F86430B4F8C6
:1015B000663001339BB2A4F86630642B0CD0094A24
:1015C000B2F86630C3EBC303980008230021064C31
:1015D0002058FFF78DFF10BD0022A4F86620EEE72B
:1015E000B401002094000020D40C00200FB400B5FA
:1015F000ADF5037D84AB53F8042B01934FF40071D8
:1016000002A804F06FFE02A8FEF78AFF41F28833B9
:1016100082B202A9044804F0CFFA0DF5037D5DF80B
:1016200004EB04B0704700BFC418002010B5044696
:101630000E4B18784FF47A73B3FBF0F30C4A106832
:10164000B0FBF3F001F06CFC68B90F2C01D901205C
:101650000AE0002221464FF0FF3001F003FC034B6B
:101660005C60002000E0012010BD00BF04000020ED
:101670000000002008B50B4B1A6842F400721A6093
:101680001A6842F480621A601A6842F480721A6022
:10169000032001F0C9FB0020FFF7C8FFFFF7DAFBCA
:1016A000002008BD003C0240034A1168034B1B7830
:1016B0000B441360704700BF241D0020040000206D
:1016C000014B1868704700BF241D002038B5044640
:1016D000FFF7F6FF0546B4F1FF3F02D0044B1B783D
:1016E0001C44FFF7EDFF401BA042FAD338BD00BFFA
:1016F0000400002010B504464F4B5A6822F44032D3
:101700005A605A6841680A435A600268536823F471
:101710008073536002685368016943EA0123536090
:101720000268536823F0407353600268536881680D
:101730000B4353600268936823F40063936002686C
:101740009368C1680B439360826A3C4B9A425BD0BA
:101750000268936823F07063936002689368816AFB
:101760000B4393600268936823F0405393600268D0
:101770009368C16A0B4393602268936823F0020365
:10178000936022689368217E43EA4103936094F852
:101790002030002B49D0636A013B072B3FD82268D9
:1017A000536843F4006353602268536823F4604332
:1017B000536021684B68626A013A43EA42334B60E6
:1017C0002268D36A23F47003D3622168CB6AE2698A
:1017D000013A43EA0253CB622268936823F4007310
:1017E00093602268936894F8301043EA4123936031
:1017F0002268936823F48063936022689368616928
:1018000043EA8123936010BD0268936823F07063FC
:1018100093600268936823F040539360ACE740F212
:1018200075710748FFF714FBB9E72268536823F482
:1018300000635360C4E700BF002301400100000FB4
:10184000086B0008002800F0E68010B50446026826
:10185000724B9A4204D040F243117148FFF7F8FAF4
:10186000636843B1B3F5803F05D0B3F5003F02D0C4
:10187000B3F5403F71D1A36843B1B3F1807F05D088
:10188000B3F1007F02D0B3F1407F6CD12369012B0B
:101890006FD8237E012B72D8A36A7BB3B3F1807F0C
:1018A0002CD0B3F1007F29D0B3F1407F26D0B3F123
:1018B000806F23D0B3F1A06F20D0B3F1C06F1DD0E3
:1018C000B3F1E06F1AD0B3F1006F17D0B3F1106F1E
:1018D00014D0B3F1206F11D0B3F1306F0ED0B3F14B
:1018E000406F0BD0B3F1506F08D0B3F1606F05D0EB
:1018F000B3F1706F02D04B4A934246D1E36813B103
:10190000B3F5006F47D1E369013B0F2B49D894F839
:101910003030012B4BD86369022B4ED894F820301D
:10192000012B50D8A26A3F4B9A420AD0E36A43B1D6
:10193000B3F1805F05D0B3F1005F02D0B3F1405F37
:1019400047D1236C002B4AD0236C13F0100F4ED0DC
:101950000120002384F83C3010BD4FF4A2713048C0
:10196000FFF776FA87E740F245112D48FFF770FA46
:101970008CE74FF4A3712A48FFF76AFA89E740F22F
:1019800047112748FFF764FA86E74FF4A47124480B
:10199000FFF75EFAB2E740F249112148FFF758FA23
:1019A000B1E74FF4A5711E48FFF752FAAFE740F2D6
:1019B0004B111B48FFF74CFAADE74FF4A6711848DE
:1019C000FFF746FAAAE740F24D111548FFF740FA33
:1019D000A8E740F251111248FFF73AFAB1E7204662
:1019E000FEF7E8FE0023636484F83C30ACE7236C28
:1019F00023F4885323F0020343F0020323642046B8
:101A0000FFF778FE00206064236C23F0030343F0AB
:101A1000010323649DE70120704700BF00200140BF
:101A2000086B00080100000F10B582B004460023C7
:101A30000193037E012B24D8E36A43B1B3F1805FA5
:101A400005D0B3F1005F02D0B3F1405F1FD194F82D
:101A50003C30012B6FD0012384F83C3023689A6816
:101A600012F0010F1FD19A6842F001029A60364BC2
:101A70001B68364AA2FB03239B0C03EB4303019331
:101A80000EE040F2D3213248FFF7E2F9D4E74FF4F9
:101A900035712F48FFF7DCF9D9E7019B013B019332
:101AA000019B002BF9D12268936813F0010F44D0F9
:101AB000236C23F4E06323F0010343F48073236475
:101AC000536813F4806F05D0236C23F4405343F420
:101AD00080532364236C13F4805F19D0636C23F06C
:101AE00006036364002384F83C306FF02203136024
:101AF000184B5B6813F01F0F0DD123689A6812F022
:101B0000405F1DD19A6842F080429A60002015E043
:101B100000236364E6E723680F4A934201D0002064
:101B20000CE09A6812F0405F0CD19A6842F0804253
:101B30009A60002002E0022000E0002002B010BD08
:101B40000020FBE70020F9E70000002083DE1B43B4
:101B5000086B0008002301400020014003689A68D8
:101B600012F4806F03D09B6813F4807F1CD170B592
:101B70000D460446FFF7A4FD064623681A6812F0D6
:101B8000020F1AD1B5F1FF3FF7D025B1FFF798FD4D
:101B9000801BA842F1D9236C43F004032364002383
:101BA00084F83C3003202DE0036C43F020030364F1
:101BB000002380F83C30012070476FF012021A6059
:101BC000236C43F40073236423689A6812F0405F27
:101BD00017D1227EBAB9DA6A12F4700F03D09B686B
:101BE00013F4806F11D1236C23F480732364236C6E
:101BF00013F4805F0BD1236C43F0010323640020B6
:101C000000E0002070BD0020FCE70020FAE7002083
:101C1000F8E70368D86C704770477047704700005A
:101C200038B50446037E012B00F29580E369013B41
:101C30000F2B00F296806369022B00F298802268D5
:101C40001168536803F0200311F0020F2DD063B325
:101C5000236C13F0100F03D1236C43F4007323643F
:101C6000936813F0405F19D1237EBBB9D36A13F494
:101C7000700F03D0936813F4806F0FD1536823F073
:101C800020035360236C23F480732364236C13F4C8
:101C9000805F03D1236C43F0010323642046FFF7E8
:101CA000BBFF23686FF012021A60236819685A6834
:101CB00002F0800211F0040F36D0002A34D0226CDA
:101CC00012F0100F03D1226C42F4005222649A6881
:101CD00012F4401F21D19A6B12F4401F03D09A686E
:101CE00012F4806F19D15A6812F4806F15D19A6876
:101CF00012F0405F11D1227E7AB95A6822F0800238
:101D00005A60236C23F480532364236C13F4807F84
:101D100003D1236C43F001032364204600F038F91B
:101D200023686FF00C021A6022681168536803F090
:101D3000400311F0010F04D01BB1136813F0010F21
:101D40001BD122681168536803F0806311F0200FE3
:101D500000D0F3B938BD40F29D411448FFF778F840
:101D600064E740F29E411148FFF772F863E740F2E2
:101D70009F410E48FFF76CF861E7236C43F4803312
:101D800023642046FFF749FF23686FF001021A60C1
:101D9000D7E7636C43F0020363646FF020051560BE
:101DA0002046FFF73BFF23681D60D3E7086B000860
:101DB00030B583B005460C46002301930B68122B07
:101DC0004ED86368013B0F2B50D8A368072B53D81C
:101DD00095F83C30012B00F0CD80012385F83C3094
:101DE0002368092B4ED92868C2689BB203EB4303D2
:101DF0001E3B072101FA03F322EA0303C3602868AC
:101E0000C268A168238803EB43031E3B01FA03F376
:101E10001343C3606368062B4AD82868426B03EB00
:101E20008303053B1F2101FA03F322EA0303436303
:101E30002868426B636803EB8303053B218801FA42
:101E400003F3134343632A684B4B9A4260D02A68DA
:101E5000494B9A4269D0002085F83C0003B030BD60
:101E60004FF4CB614548FEF7F3FFAAE740F2596112
:101E70004248FEF7EDFFA8E740F25A613F48FEF7FF
:101E8000E7FFA5E7286802699BB203EB430307213C
:101E900001FA03F322EA0303036128680269A168D7
:101EA000238803EB430301FA03F313430361B1E710
:101EB0000C2B16D82868026B03EB8303233B1F21EE
:101EC00001FA03F322EA030303632868026B6368E1
:101ED00003EB8303233B218801FA03F313430363DA
:101EE000B1E72868C26A03EB8303413B1F2101FA73
:101EF00003F322EA0303C3622868C26A636803EB40
:101F00008303413B218801FA03F31343C3629AE739
:101F10002368122B9BD11A4B5A6822F400025A6094
:101F20005A6842F480025A6091E72368154A934246
:101F300001D0112B8FD1124B5A6822F480025A60C3
:101F40005A6842F400025A6022680E4B9A4282D1CB
:101F50000D4B1B680D4AA2FB03239B0C03EB830371
:101F60005A00019202E0019B013B0193019B002B6F
:101F7000F9D170E7022071E700200140086B0008EA
:101F800000230140120000100000002083DE1B43EC
:101F90007047000038B505460C460B68122B00F25E
:101FA00006816368013B032B00F20781A368072BBE
:101FB00000F20981A369A3B3B3F5803F31D0B3F533
:101FC000003F2ED0B3F5403F2BD0B3F5802F28D063
:101FD000B3F5A02F25D0B3F5C02F22D0B3F5E02F55
:101FE0001FD0B3F5002F1CD0B3F5102F19D0B3F5C7
:101FF000202F16D0B3F5302F13D0B3F5402F10D0CB
:10200000B3F5502F0DD0B3F5602F0AD0B3F5702F74
:1020100007D0AA4A934204D040F22131A848FEF7E3
:1020200017FF2369013B032B00F2D380637D012B53
:1020300000F2D580237D012B00F2D7802B685B68EE
:1020400013F0407303D1E268B2F5805F12D3B3F1AD
:10205000807F00F0D080B3F1007F00F0D280B3F138
:10206000407F02D1E3683F2B04D94FF44A71944872
:10207000FEF7EEFEA269914B9A420BD0E3694BB199
:10208000B3F5801F06D0B3F5001F03D0B3F5401F92
:1020900040F0BC8095F83C30012B00F037810123E3
:1020A00085F83C302368092B40F2B6802868C26866
:1020B0009BB203EB43031E3B072101FA03F322EA21
:1020C0000303C3602868C268A168238803EB430345
:1020D0001E3B01FA03F31343C3602A68936B23F496
:1020E0004013936329688B6B2269013A43EA0253D8
:1020F0008B632868826B636821695B1ADBB20333E8
:10210000DBB203EB83031F2101FA03F322EA03038B
:1021100083632868826B636821695B1ADBB20333CF
:10212000DBB203EB8303218801FA03F313438363D8
:10213000A269624B9A4200F085802A68936823F472
:10214000702393602A689368A1690B4393602A689F
:10215000936823F4401393602A689368E1690B4302
:102160009360637D002B78D02A68536843F48063C2
:102170005360237D002B76D02A68536843F4805344
:1021800053606368022B00F08C80032B00F09C806E
:10219000012B6ED02A68136A23F47F6323F00F03A8
:1021A00013622A68136AE1680B4313626DE040F220
:1021B0001E314348FEF74CFEF3E640F21F31404823
:1021C000FEF746FEF2E64FF448713D48FEF740FE4A
:1021D000F0E640F222313A48FEF73AFE26E740F2B6
:1021E00023313748FEF734FE24E74FF44971344871
:1021F000FEF72EFE22E7E268B2F5806FFFF43AAFF9
:1022000029E7E268FF2A7FF635AF28E740F22D3153
:102210002B48FEF71DFE3DE7286802699BB203EBE1
:102220004303072101FA03F322EA03030361286849
:102230000269A168238803EB430301FA03F3134304
:1022400003614AE72A68936823F4702393602A683D
:10225000936823F44013936083E72A68536823F458
:102260008063536085E72A68536823F48053536082
:1022700087E72A68536923F47F6323F00F035361D0
:102280002A685369E1680B4353612A680D4B9A42EF
:1022900027D02A680B4B9A422CD0002085F83C00AE
:1022A00038BD2A68936923F47F6323F00F03936199
:1022B0002A689369E1680B439361E6E701000F0028
:1022C000406B0008002001402A68D36923F47F6333
:1022D00023F00F03D3612A68D369E1680B43D3610C
:1022E000D3E72368122BD4D1094A536843F48003FF
:1022F0005360CEE72368074A934201D0112BCCD11B
:10230000034A536843F400035360C6E70220C7E75B
:102310000023014012000010002800F0758138B53C
:1023200004460368B04A93420CD002F5806293429F
:1023300008D002F58062934204D040F21D11AB48F0
:10234000FEF786FD237E012B00F29B80637E012B2E
:1023500000F29D80A37E012B00F29F80E37E012B83
:1023600000F2A180237F012B00F2A380637F012B69
:1023700000F2A580A3684BB1B3F1804F06D0B3F152
:10238000004F03D0B3F1404F40F09F80E3684BB162
:10239000B3F1807F06D0B3F1007F03D0B3F1407F6B
:1023A00040F0998023698BB3B3F5803F2ED0B3F50D
:1023B000003F2BD0B3F5403F28D0B3F5802F25D078
:1023C000B3F5A02F22D0B3F5C02F1FD0B3F5E02F67
:1023D0001CD0B3F5002F19D0B3F5102F16D0B3F5DC
:1023E000202F13D0B3F5302F10D0B3F5402F0DD0E0
:1023F000B3F5502F0AD0B3F5602F07D0B3F5702F87
:1024000004D04FF493717948FEF722FD6369A3B1BC
:10241000B3F5801F11D0B3F5001F0ED0B3F5401FE8
:102420000BD0B3F5800F08D0B3F5A00F05D0B3F5EE
:10243000C00F02D0B3F5E00F53D16368013BB3F591
:10244000806F54D294F82030002B56D02268136845
:1024500023F002031360FFF733F9054623685A6837
:1024600012F0020F4DD0FFF72BF9401B0A28F5D9C7
:10247000636A43F400336362052384F8203001204B
:1024800038BD4FF48F715948FEF7E2FC5EE740F229
:102490001F115648FEF7DCFC5CE74FF4907153487F
:1024A000FEF7D6FC5AE740F221115048FEF7D0FC67
:1024B00058E74FF491714D48FEF7CAFC56E740F2D9
:1024C00023114A48FEF7C4FC54E74FF49271474881
:1024D000FEF7BEFC5AE740F225114448FEF7B8FC6F
:1024E00060E740F227114148FEF7B2FCA5E74FF440
:1024F00094713E48FEF7ACFCA4E72046FEF7B6F91F
:10250000A4E71A6842F001021A60FFF7D9F80546FD
:1025100023685A6812F0010F0DD1FFF7D1F8401B64
:102520000A28F5D9636A43F400336362052384F80B
:1025300020300120A4E7227E012A3DD01A6822F033
:1025400080021A60637E012B3BD02268136823F05F
:1025500040031360A37E012B39D02268136823F057
:1025600020031360E37E012B37D02268136843F009
:1025700010031360237F012B3AD02268136823F0E5
:1025800008031360637F012B38D02268136823F09F
:1025900004031360A368E26813432269134362696A
:1025A00013436268013A21681343CB6100206062E3
:1025B000012384F8203063E71A6842F080021A6031
:1025C000C0E72268136843F040031360C2E7226843
:1025D000136843F020031360C4E72268136823F0F4
:1025E00010031360C6E700BF006400407C6B000866
:1025F0002268136843F008031360C3E72268136876
:1026000043F004031360C5E70120704770B5056807
:1026100090F82030013BDBB2012B05D9436A43F42B
:1026200080234362012070BD0C4606460B68B3F55B
:10263000803F76D26368B3F5803F78D2A368B3F564
:10264000803F7AD2E368B3F5803F7CD2A369012B47
:102650007FD8E369012B00F282802369012B00F20D
:102660008480236A012B00F2868032686C4B9A4288
:1026700000F0878063691B2B00F28D80636A1B2B3F
:1026800000F28F80674DD5F8003243F00103C5F8A2
:102690000032644B9D4200F08B80636903F01F039E
:1026A000012202FA03F3D5F81C12DA431140C5F8EF
:1026B0001C12E169A9B9D5F80C121140C5F80C1229
:1026C000E668A088616940EA0640483145F8310073
:1026D000A6682088616940EA0640483105EBC101DF
:1026E0004860E169012971D0A169002940F0858025
:1026F000D5F804121140C5F804122169002940F0F0
:102700008280D5F814120A40C5F81422226A012AE0
:102710007FD0D5F8003223F00103C5F80032002045
:1027200081E74FF454714048FEF792FB82E740F294
:1027300051313D48FEF78CFB80E740F252313A4878
:10274000FEF786FB7EE740F253313748FEF780FB09
:102750007CE74FF455713448FEF77AFB79E740F295
:1027600055313148FEF774FB77E740F256312E4879
:10277000FEF76EFB75E740F257312B48FEF768FB1A
:1027800073E763690D2B7FF67EAF4FF458712648CF
:10279000FEF75EFB77E740F269312348FEF758FB0E
:1027A0006CE740F26A312048FEF752FB1D4D6AE7A4
:1027B000D5F8003223F47C53C5F80032D5F8003246
:1027C000626A43EA0223C5F8003266E7D5F80C12C4
:1027D0001943C5F80C122668A088616940EA0640D2
:1027E000483145F83100A668A089616940EA064091
:1027F000483105EBC101486076E7D5F8041219436A
:10280000C5F8041279E7D5F814221A43C5F8142242
:102810007CE7D5F81C221343C5F81C3279E700BFCA
:10282000006C0040006400407C6B000838B590F8F4
:102830002030DBB2012B05D0436A43F4002343620E
:10284000012038BD0446022380F820300268136856
:1028500023F001031360FEF733FF054623685B682E
:1028600013F0010F0DD0FEF72BFF401B0A28F5D9FE
:10287000636A43F400336362052384F82030012047
:10288000DFE700206062DCE72DE9F84306460D46ED
:102890009046994690F82040E4B203689F688B68A0
:1028A0000BB1042B1AD1EB680BB1022B1CD12B6995
:1028B000082B1FD8AB684BBB2B68B3F5006F1FD23A
:1028C0002B7D012B2CD8013CE4B2012C2ED9736A4C
:1028D00043F4802373620120BDE8F88340F2E941AC
:1028E0004948FEF7B5FADEE740F2EA414648FEF70E
:1028F000AFFADCE740F2EB414348FEF7A9FAD9E72B
:1029000040F2EE414048FEF7A3FAD9E76B68B3F115
:10291000005FD5D340F2F2413B48FEF799FACFE78A
:1029200040F2F4413848FEF793FACCE717F0E05F45
:1029300064D0C7F30167022F47D80123BB40C9F811
:102940000030AB68002B46D12968EB68326843EA57
:10295000415107F118031B01D15033682A6907F16F
:10296000180103EB01135A602B7D012B3ED098F820
:10297000072098F806301B0443EA026398F8052004
:1029800043EA022398F804203168134338010144D4
:10299000C1F88C3198F8032098F802301B0443EA00
:1029A000026398F8012043EA022398F80010326885
:1029B0000B430244C2F88831326818373F01D359BB
:1029C00043F00103D351002086E7736A43F4000308
:1029D0007362012080E76A6843EAC203EA683168EB
:1029E000134307F1180212018B50B6E7336803EB6B
:1029F00001135A6842F480725A60B8E7736A43F46C
:102A000000137362012067E77C6B00082DE9F04139
:102A100005460E4690461F4690F82040E4B2012934
:102A20000AD8013CE4B2012C0CD96B6A43F4802330
:102A30006B620120BDE8F0814FF4BE614B48FEF7A8
:102A400007FAEEE7002E75D12B68DB6813F0030F51
:102A50006AD02A6806F11B031B01D35803F0040354
:102A6000C8F80830002B70D12A6806F11B031B013F
:102A7000D3585B0DC8F800302A6806F11B031B0110
:102A8000D25802F00202C8F80C202A681A44526890
:102A900002F00F02C8F810202A681A445268C2F3E4
:102AA0000722C8F818202A6813445B681B0CC8F872
:102AB00014302A6833011A44D2F8B8213A702A68CF
:102AC0001A44D2F8B821C2F307227A702A681A444D
:102AD000D2F8B821C2F30742BA702A681A44D2F871
:102AE000B821120EFA702A681A44D2F8BC213A7141
:102AF0002A681A44D2F8BC21C2F307227A712A68E4
:102B00001A44D2F8BC21C2F30742BA712A681344AE
:102B1000D3F8BC311B0EFB7106BB2A68D36843F0A7
:102B20002003D360002085E76B6A43F400136B62D7
:102B300001207FE72B681B6913F0030F89D16B6AB3
:102B400043F400136B62012074E72A6806F11B034B
:102B50001B01D358DB08C8F804308DE72A681369D5
:102B600043F020031361002064E700BF7C6B000882
:102B700070B505460E4690F82040E4B20C4B9942E1
:102B800009D8013CE4B2012C0BD96B6A43F48023D1
:102B90006B62012070BD4FF4D0610648FEF758F912
:102BA000EFE72A6853691E4356610020F2E700BF31
:102BB0007F8F03007C6B0008704770477047704739
:102BC000704770477047704770477047704770474D
:102BD0002DE9F84F054603685C695F689E68D3F885
:102BE0000C90D3F81080D3F818A014F0010F5AD02D
:102BF00016F0010F17D001229A6016F0020F08D1CB
:102C000016F0040F30D116F0080F07D04FF4805B98
:102C10000BE0FFF7D1FF4FF0000B06E0FFF7CFFF0F
:102C20004FF0000B01E04FF0000B16F4807F0BD04B
:102C30002B684FF480729A6016F4007F17D116F457
:102C4000806F18D04BF4005B16F4803F2DD02B68BA
:102C50004FF480329A6016F4003F16D116F4802F9C
:102C600017D04BF4004B20E04FF4006BDDE7284613
:102C7000FFF7A3FFE8E716F4006F02D04BF4804B98
:102C8000E2E72846FFF79CFFDEE72846FFF796FFBE
:102C90000BE016F4002F02D04BF4803B05E02846F1
:102CA000FFF78FFF01E04FF0000B14F0080F07D083
:102CB00019F0100F04D04BF4007B2B681022DA605F
:102CC00014F0040F02D019F0080F60D114F0020FB5
:102CD00004D02B68DB6813F0030F5FD114F0400FB2
:102CE00007D018F0100F04D04BF4806B2B68102223
:102CF0001A6114F0200F02D018F0080F52D114F00E
:102D0000100F04D02B681B6913F0030F51D114F47A
:102D1000003F02D017F0100F4FD114F4803F02D0C3
:102D200017F0080F50D114F4004F67D017F0040FBC
:102D300061D014F4807F04D01AF0010F01D04BF061
:102D4000010B14F4007F04D01AF0020F01D04BF0F5
:102D5000020B14F4806F04D01AF0040F01D04BF072
:102D6000040B14F4006F46D01AF0700A43D0BAF185
:102D7000300F48D02FD9BAF1500F47D0BAF1600FB9
:102D800047D0BAF1400F31D14BF0400B2EE02B6809
:102D90000822DA602846FFF715FF97E72846FEF776
:102DA000F7FB9BE72B6808221A612846FFF70CFF08
:102DB000A5E72846FFF707FFA9E72B6810225A600E
:102DC0002846FFF702FFA8E72B6808225A6028462A
:102DD000FFF7FCFEA7E7BAF1100F05D0BAF1200FFC
:102DE00004D14BF0100B01E04BF0080B2A689369FB
:102DF00023F0700393612B6804225A60BBF1000F2B
:102E00000AD1BDE8F88F4BF0200BEFE74BF0800BB9
:102E1000ECE74BF4807BE9E76B6A43EA0B036B62F8
:102E20002846FFF7D4FEECE710B50446C31E042B7A
:102E30000FD80A4AD36823F4E0631B041B0C240256
:102E400004F4E064234343F0BF6343F40033D360EE
:102E500010BD92210248FDF7FBFFEAE700ED00E01C
:102E6000B46B000870B505460C4616460F2A25D8E7
:102E70000F2C28D81B4BDB68C3F30223C3F10702D6
:102E8000042A28BF0422191D062921D9033B4FF02B
:102E9000FF3101FA02F224EA02049C4001FA03F332
:102EA00026EA03063443002D14DB2401E4B205F1C5
:102EB000604505F5614585F8004370BDAA210A48C3
:102EC000FDF7C6FFD4E7AB210748FDF7C1FFD1E707
:102ED0000023DCE705F00F052401E4B2034B5C5549
:102EE000EBE700BF00ED00E0B46B000814ED00E07C
:102EF00010B5041E0ADB002C07DB04F01F02640976
:102F000001239340044A42F8243010BDBE210348F7
:102F1000FDF79EFFEFE700BF00E100E0B46B0008A3
:102F20000138B0F1807F0AD2064B5860064AF02182
:102F300082F823100020986007221A607047012051
:102F4000704700BF10E000E000ED00E090F8353081
:102F5000DBB2022B03D08023436501207047052399
:102F600080F835300268136823F0010313600020F5
:102F7000704700002DE9F04383B080460E46A24B17
:102F800098421FD003F5806398421BD003F58063FD
:102F9000984217D003F58063984213D003F58063FD
:102FA00098420FD003F5806398420BD003F58063FD
:102FB000984207D003F58063984203D0B321934829
:102FC000FDF746FF33689AB212B11B0C1B041BB10C
:102FD000B4218E48FDF73CFF7368012B1ED9112BDD
:102FE0001CD0022B1AD0122B18D0894A934215D02C
:102FF00002F58012934211D002F5801293420DD057
:10300000A2F5F812934209D002F58012934205D03E
:1030100002F58012934201D0032B04D1B368022B36
:1030200006D8002445E0B5217848FDF711FFF5E703
:10303000B6217648FDF70CFFF3E7C8217348FDF78A
:1030400007FF4AE0062300E000238B4003430232DF
:10305000704941F82230704B1A68FB4303EA0201C1
:10306000706810F4803F01D047EA02016A4A11609B
:10307000526803EA0201706810F4003F01D047EA89
:103080000201654A5160926803EA0201706810F417
:10309000801F01D047EA02015F4A9160D268134065
:1030A000716811F4001F01D047EA02035A4AD36045
:1030B00001340F2C00F2A5800125A54037682F4070
:1030C000BD42F5D173685A1E012A03D9112B01D0D4
:1030D000122B19D1F368032BAFD8D8F80820610060
:1030E00003238B4022EA0302F3688B401343C8F8A2
:1030F0000830D8F8042022EA05027368C3F30015EB
:10310000A5401543C8F80450D8F80C204FEA4409EC
:10311000032505FA09F5ED432A40B36803FA09F3DC
:103120001343C8F80C307368022B01D0122B18D14E
:1031300033690F2B01D80D2B03D1E0213348FDF764
:1031400087FEE208083258F8220004F007039900CD
:103150000F238B4020EA030033698B40034348F878
:103160002230D8F800301D40736803F0030303FADF
:1031700009F31D43C8F80050736813F0805F97D0BF
:1031800000230193254B5A6C42F480425A645B6CD5
:1031900003F480430193019BA208911C1D4B53F83B
:1031A000210004F0030399000F238B4020EA030061
:1031B000154B98453FF448AF03F58063984516D00A
:1031C00003F58063984514D003F58063984512D0C9
:1031D00003F58063984510D003F5806398450ED0C1
:1031E00003F5806398453FF42DAF07232DE70123B6
:1031F0002BE7022329E7032327E7042325E70523F9
:1032000023E703B0BDE8F08300000240F06B000844
:103210000000111000380140003C0140003802401D
:1032200038B505460C4621B12B691C4207D1002058
:1032300038BD4FF4BF710348FDF70AFEF4E70120E3
:10324000F6E700BFF06B000870B5064615460C4661
:1032500029B1012D09D875B92404B46170BD40F2BB
:103260009F110648FDF7F4FDF3E74FF4D0710348D2
:10327000FDF7EEFDEFE7B461F0E700BFF06B00088B
:1032800008B5054B5B69034200D108BD024B58618C
:10329000FDF782FCF9E700BF003C0140F0B58BB0C0
:1032A000002800F09A8004460368B3F1A04F03D0D1
:1032B00087214B48FDF7CCFD256894F8BD3323B337
:1032C000032384F8BD33EB6B13F4807F01D100231B
:1032D0002361206802F03FFE254655F8107B6E46BC
:1032E0000FCD0FC60FCD0FC695E8030086E803008B
:1032F000231D0ECB384602F0E9FD60B1022384F8AD
:10330000BD33012528460BB0F0BD84F8BC33204600
:10331000FEF790F8D4E70021206802F022FE002397
:1033200015E0D900C81A82002244012082F83D002D
:1033300082F83C30A2F84230002082F83F0050640E
:103340009064CA1A9100214408650133DBB26568B4
:10335000AB42E6D3002315E0D800C11A8A0022440C
:10336000002182F8FD1182F8FC3182F8FF11C2F8C9
:103370000412C2F80812C21A90002044C0F81012B9
:103380000133DBB29D42E7D8254655F8107B6E46E7
:103390000FCD0FC60FCD0FC695E8030086E80300DA
:1033A000231D0ECB384602F023FE054660B90023EC
:1033B00084F83830012384F8BD33636A012B08D0C8
:1033C000206802F0D9FE9DE7022384F8BD33012571
:1033D00098E7204600F006F8F2E7012592E700BFE3
:1033E0002C6C0008034602680121C0F8FC13002081
:1033F00083F8F403936943F000639361536D43F0E2
:10340000805343F00303536570470000264B9B68CD
:1034100003F00C03042B44D0082B01D02348704741
:103420002DE9F04B204B5A6802F03F025B6813F421
:10343000800F13D01C4B5968C1F3881100231C481E
:10344000A1FB0001FCF7ECFE174B5B68C3F30143E3
:1034500001335B00B0FBF3F0BDE8F08B124B5B680F
:10346000C3F388131E4600275C010025E41A65EBB0
:103470000705A90141EA9461A001001B61EB050168
:10348000CB0043EA5073C400A01943EB07018B0241
:1034900043EA90538402204619460023FCF7C0FEFD
:1034A000D2E70348704700BF003802400024F40010
:1034B00080BA8C01002800F0FA8070B504460D46F1
:1034C0000368013B0E2B11D8072D15D87A4B1B68CA
:1034D00003F00F03AB4215D2EBB2774A13701368B7
:1034E00003F00F03AB420DD0012070BD40F251211B
:1034F0007248FDF7ADFCE7E740F252216F48FDF757
:10350000A7FCE3E7236813F0020F29D013F0040FA0
:1035100004D06B4A936843F4E0539360236813F03C
:10352000080F04D0664A936843F460439360A3682D
:103530007BB1802B0DD0902B0BD0A02B09D0B02BC2
:1035400007D0C02B05D0D02B03D0E02B01D0F02B1F
:1035500033D15B4A936823F0F003A1680B43936077
:10356000236813F0010F42D06368032B2BD86368E4
:10357000012B2ED09A1E012A32D9514A126812F01C
:10358000020F00F096804E498A6822F0030213432E
:103590008B60FEF795F80646494B9B6803F00C03D9
:1035A0006268B3EB820F22D0FEF78AF8801B41F2EB
:1035B00088339842F0D9032097E740F275213F48BD
:1035C000FDF746FCC5E74FF41F713C48FDF740FC92
:1035D000CDE73B4A126812F4003FD4D1012084E7C2
:1035E000374A126812F0007FCDD101207DE7324BBF
:1035F0001B6803F00F03AB4209D9EAB22E4B1A70D5
:103600001B6803F00F03AB4201D001206DE7236874
:1036100013F0040F14D0E3685BB1B3F5805F08D0FA
:10362000B3F5A05F05D0B3F5C05F02D0B3F5E05F9E
:1036300031D1234A936823F4E053E1680B4393604C
:10364000236813F0080F15D023695BB1B3F5805FD1
:1036500008D0B3F5A05F05D0B3F5C05F02D0B3F5D5
:10366000E05F1ED1164A936823F46043216943EA60
:10367000C1039360FFF7CAFE114B9B68C3F30313AA
:10368000104AD35CD840104B1860104B1868FDF7F7
:10369000CDFF002029E740F2BA210848FDF7D8FB0A
:1036A000C7E740F2C1210548FDF7D2FBDAE7012068
:1036B0007047012019E700BF003C0240646C00081D
:1036C00000380240EC6A00080000002008000020DA
:1036D000014B1868704700BF0000002008B5FFF7D5
:1036E000F7FF044B9B68C3F38223034AD35CD840A3
:1036F00008BD00BF00380240FC6A000808B5FFF7AB
:10370000E7FF044B9B68C3F34233034AD35CD840C2
:1037100008BD00BF00380240FC6A000870B582B0E6
:1037200004460368013B47F6FE7293421DD82368A6
:1037300013F0010F25D0E36943B1B3F1007F05D049
:10374000B3F1806F02D0B3F1C06F14D1AF4AD2F899
:103750008C3023F0C063E1690B43C2F88C30E3691D
:10376000002B00F0138100260CE04FF4A161A84863
:10377000FDF76EFBDBE740F20E51A548FDF768FB55
:10378000E4E70026236813F0020F17D0236A4BB139
:10379000B3F1006F06D0B3F1805F03D0B3F1C05F27
:1037A00040F0F680994AD2F88C3023F0C053216A59
:1037B0000B43C2F88C30236A03B90126236813F443
:1037C000005F1BD0A36C4BB1B3F5801F06D0B3F5DF
:1037D000001F03D0B3F5401F40F0E0808B4AD2F8C1
:1037E0008C3023F44013A16C0B43C2F88C30A36CD3
:1037F00003B90126B3F5001F00F0D680236813F447
:10380000804F1BD0E36C4BB1B3F5800F06D0B3F5FE
:10381000000F03D0B3F5400F40F0DC807B4AD2F8B4
:103820008C3023F44003E16C0B43C2F88C30E36C22
:1038300003B90126B3F5000F00F0D280236813F01E
:10384000080F00F01781636AB3F5807F7ED0B3F56F
:10385000007F7BD06F4A934278D002F5803293424A
:1038600074D002F58032934270D002F580329342D8
:103870006CD002F58032934268D002F580329342D8
:1038800064D002F58032934260D002F580329342D8
:103890005CD002F58032934258D002F580329342D8
:1038A00054D002F58032934250D002F580329342D8
:1038B0004CD002F58032934248D002F580329342D8
:1038C00044D002F58032934240D002F580329342D8
:1038D0003CD002F58032934238D002F580329342D8
:1038E00034D002F58032934230D002F580329342D8
:1038F0002CD002F58032934228D002F580329342D8
:1039000024D002F58032934220D002F580329342D7
:103910001CD002F58032934218D002F580329342D7
:1039200014D002F58032934210D002F580329342D7
:103930000CD002F58032934208D002F580329342D7
:1039400004D040F262513248FDF782FA002301931D
:103950002E4B1A6C42F080521A641B6C03F0805399
:103960000193019B2C4A136843F480731360FDF7A5
:10397000A7FE0546284B1B6813F4807F4ED1FDF748
:103980009FFE401B0228F5D903202AE10126F9E613
:1039900040F21E511E48FDF75BFA03E740F22F513B
:1039A0001B48FDF755FA19E76369013B1F2B0BD83C
:1039B0001649D1F88C3023F4F8536269013A43EA8E
:1039C0000223C1F88C3019E740F23C511048FDF752
:1039D0003FFAEDE74FF4A9610D48FDF739FA1DE70D
:1039E0006369013B1F2B0BD80849D1F88C3023F4B5
:1039F000F8536269013A43EA0223C1F88C301DE7AB
:103A000040F255510248FDF723FAEDE70038024035
:103A10009C6C00080003020000700040934B1B6F79
:103A200013F4407313D0626A02F440729A420ED0CB
:103A30008E4B1A6F22F440728D49012008600020DD
:103A400008601A671B6F13F0010F40F0CC80636AA7
:103A500003F44072B2F5407F00F0D780834A936848
:103A600023F4F813936081490B6F626AC2F30B026F
:103A700013430B67236813F0040F03D094F854200A
:103A80007C4B1A60236813F0100F11D0E36A33B136
:103A9000B3F5800F03D0B3F5000F40F0C180734A37
:103AA000D2F8943023F44003E16A0B43C2F8943017
:103AB000236813F0200F13D0236B1BB1B3F1006FF9
:103AC00040F0B480694AD2F8943023F00063216B4F
:103AD0000B43C2F89430236BB3F1006F00F0AC805D
:103AE000236813F0400F0ED0A36A1BB1B3F1805FBF
:103AF00040F0A4805D4AD2F8943023F08053A16A4C
:103B00000B43C2F89430002E40F09E802368802B37
:103B100000F09A80236813F4807F0ED0636B1BB192
:103B2000B3F1004F40F07D81504AD2F88C3023F041
:103B30000043616B0B43C2F88C30236813F4007FA1
:103B40000ED0A36B1BB1B3F5004F40F07081474A14
:103B5000D2F88C3023F40043A16B0B43C2F88C30B5
:103B6000236813F4806F0ED0E36B1BB1B3F1004FE9
:103B700040F063813D4AD2F88C3023F00043E16B82
:103B80000B43C2F88C30236813F4006F0ED0236C03
:103B90001BB1B3F5804F40F05681344AD2F88C30D7
:103BA00023F48043216C0B43C2F88C30236813F458
:103BB000805F00F05481636C4BB1B3F1804F06D04D
:103BC000B3F1004F03D0B3F1404F40F04281274A98
:103BD000D2F8943023F04043616C0B43C2F8943028
:103BE000002002B070BDFDF76BFD05461F4B1B6F3B
:103BF00013F0020F7FF42BAFFDF762FD401B41F283
:103C000088339842F2D90320EBE718498A6822F4F6
:103C1000F81223F0704323F4407313438B6022E7C0
:103C20004FF4B4611448FDF713F938E740F2AB5193
:103C30001148FDF70DF945E7012651E740F2BC5167
:103C40000D48FDF705F955E70C4B00221A60FDF70A
:103C500037FD0546054B1B6813F0006F10D0FDF7CC
:103C60002FFD401B0228F5D90320BAE70038024097
:103C7000400E4742E01147429C6C000868004742F2
:103C8000236D1BB1B3F5800F40F095806368023B54
:103C90003D2B00F29680A368323BB3F5BF7F00F264
:103CA0009680226D6F4B1A60236813F0010F01D0CC
:103CB000E269A2B113F0020F01D0226A7AB113F0C7
:103CC000200F03D0226BB2F1006F08D013F0400F29
:103CD0001AD0A36AC3B9236BB3F1006F14D123695F
:103CE000023B052B79D8E368023B0D2B7BD8636838
:103CF000A26843EA8213E26843EA0263226943EA64
:103D00000273594AC2F88430236813F4005F01D06B
:103D1000A26C22B113F4804F21D0E36CFBB923696C
:103D2000023B052B65D8A369013B1F2B67D84E4A80
:103D3000D2F884106368A06843EA801301F07061D0
:103D40000B43216943EA0173C2F88430D2F88C3006
:103D500023F01F03A16901390B43C2F88C3023689B
:103D600013F0800F14D02369023B052B4DD8E36874
:103D7000023B0D2B4FD86368A26843EA8213E268C6
:103D800043EA0263226943EA0273374AC2F8843085
:103D9000364B01221A60FDF793FC0546324B1B6837
:103DA00013F0006F7FF4B6AEFDF78AFC401B0228CB
:103DB000F4D9032015E740F2D7512D48FDF748F814
:103DC00064E74FF4BB612A48FDF742F863E740F22D
:103DD000D9512748FDF73CF863E740F2E451244805
:103DE000FDF736F87FE740F2E5512148FDF730F85E
:103DF0007DE740F2F3511E48FDF72AF893E740F2C1
:103E0000F5511B48FDF724F891E74FF4C1611848BC
:103E1000FDF71EF8ABE740F209611548FDF718F809
:103E2000A9E740F225611248FDF712F87CE64FF44D
:103E3000C6610F48FDF70CF889E640F23C610C487A
:103E4000FDF706F896E640F247610948FDF700F8ED
:103E5000A3E640F252610648FCF7FAFFB7E60020FD
:103E6000BFE600BFD8104742003802406800474212
:103E70009C6C000870B582B0044603680F2B39D8DB
:103E8000236813F0010F4FD063682BB1B3F5803F67
:103E900002D0B3F5A02F33D1A64B9B6803F00C03DF
:103EA000042B38D0A34B9B6803F00C03082B2DD0B8
:103EB0006368B3F5803F61D0B3F5A02F64D09D4B0C
:103EC0001A6822F480321A601A6822F480221A607A
:103ED0006368002B62D0FDF7F3FB0546954B1B682A
:103EE00013F4003F20D1FDF7EBFB401B6428F5D90C
:103EF00003200FE240F60C518F48FCF7A9FFBFE703
:103F000040F611518C48FCF7A3FFC5E7894B5B686D
:103F100013F4800FCCD0874B1B6813F4003F03D001
:103F20006368002B00F0F381236813F0020F67D061
:103F3000E368012B41D823691F2B44D87D4B9B6834
:103F400013F00C0F4AD07B4B9B6803F00C03082B3B
:103F50003FD0E368002B77D0784B01221A60FDF741
:103F6000AFFB0546734B1B6813F0020F63D1FDF7DF
:103F7000A7FB401B0228F5D90320CBE16D4A13684B
:103F800043F480331360A3E76A4B1A6842F480223B
:103F90001A601A6842F480321A6099E7FDF790FBC4
:103FA0000546644B1B6813F4003FBDD0FDF788FB4A
:103FB000401B6428F5D90320ACE140F649515E4826
:103FC000FCF746FFB7E740F64A515B48FCF740FF75
:103FD000B4E7584B5B6813F4800FBAD1554B1B689C
:103FE00013F0020F04D0E368012B01D0012091E10E
:103FF000504A136823F0F803216943EAC1031360B0
:10400000236813F0080F49D06369012B2ED8636928
:1040100093B34B4B01221A60FDF752FB0546454B0B
:104020005B6F13F0020F39D1FDF74AFB401B0228EA
:10403000F5D903206EE13F4A136823F0F8032169A4
:1040400043EAC1031360DBE73C4B00221A60FDF733
:1040500037FB0546374B1B6813F0020FD0D0FDF736
:104060002FFB401B0228F5D9032053E14FF459617F
:104070003148FCF7EDFECAE7314B00221A60FDF72C
:104080001FFB05462B4B5B6F13F0020F06D0FDF7AD
:1040900017FB401B0228F5D903203BE1236813F0EE
:1040A000040F00F08880A368012B01D9052B38D1BB
:1040B000204B1B6C13F0805F39D1002301931D4B03
:1040C0001A6C42F080521A641B6C03F08053019307
:1040D000019B01251B4B1B6813F4807F34D0A36820
:1040E000012B45D0052B49D0124B1A6F22F001024B
:1040F0001A671A6F22F004021A67A368002B47D0D0
:10410000FDF7DEFA06460B4B1B6F13F0020F50D182
:10411000FDF7D6FA801B41F288339842F3D9032089
:10412000F8E040F6BC510448FCF792FEC0E70025D9
:10413000D0E700BF003802409C6C000800004742F6
:10414000800E474200700040744A136843F4807345
:104150001360FDF7B5FA0646704B1B6813F4807FB9
:10416000BDD1FDF7ADFA801B0228F5D90320D1E0BF
:104170006B4A136F43F001031367BEE7684B1A6F76
:1041800042F004021A671A6F42F001021A67B4E79C
:10419000FDF796FA0646624B1B6F13F0020F08D02C
:1041A000FDF78EFA801B41F288339842F3D9032041
:1041B000B0E0002D40D1A369022B43D8A369002BA6
:1041C00000F0A780564A926802F00C02082A00F01C
:1041D000A380022B40F08780E36913B1B3F5800F11
:1041E00036D1236A3F2B39D8636A323BB3F5BF7FA0
:1041F0003AD8A36A022B05D0042B03D0062B01D09A
:10420000082B37D1E36A023B0D2B39D8236B023BD5
:10421000052B3BD8434B00221A60FDF751FA0546A7
:104220003F4B1B6813F0007F36D0FDF749FA401B67
:104230000228F5D903206DE0394A136C23F080532E
:104240001364B8E740F6FF513748FCF701FEB5E7C5
:1042500040F608613448FCF7FBFDC2E740F609610F
:104260003148FCF7F5FDBFE740F60A612E48FCF740
:10427000EFFDBEE740F60B612B48FCF7E9FDC1E717
:1042800040F60C612848FCF7E3FDBFE740F60D61FE
:104290002548FCF7DDFDBDE7E369226A1343626A46
:1042A00043EA8213A26A5208013A43EA0243E26AED
:1042B00043EA0263226B43EA0273194A5360194BC3
:1042C00001221A60FDF7FCF90446154B1B6813F038
:1042D000007F06D1FDF7F4F9001B0228F5D9032071
:1042E00018E0002016E00F4B00221A60FDF7E8F9F5
:1042F00004460B4B1B6813F0007F06D0FDF7E0F976
:10430000001B0228F5D9032004E0002002E0012070
:1043100000E0002002B070BD0120FBE7007000400B
:1043200000380240600047429C6C000810B4036AE9
:10433000046A24F001040462846924F0F00444EA6D
:10434000021223F00A030B43826103625DF8044BFF
:10435000704710B4036A23F0100303628469036A90
:1043600024F4704444EA023223F0A00343EA011328
:10437000826103625DF8044B7047836823F0700329
:10438000194341F007018160704700002DE9F041B9
:1043900004460D46036A23F001030362066A476878
:1043A000836923F073080B6843EA080826F00203C8
:1043B0008E681E43204B984203D003F580639842D9
:1043C00009D1EB680BB1082B24D126F00806EB6865
:1043D0001E4326F00406184B9C4203D003F580636D
:1043E0009C420FD1AB69B3F5007F00D0C3B96B69B4
:1043F000B3F5807F00D0CBB927F440776B693B439E
:10440000AF691F436760C4F818806B6863632662F6
:10441000BDE8F08141F202710848FCF719FDD4E7CC
:1044200041F20F710548FCF713FDE0E741F210710E
:104430000248FCF70DFDDFE700000140D86C0008E2
:104440002DE9F04104460E46036A23F480730362AB
:10445000056A4768C36923F073080B6843EA0808D4
:1044600025F400758B6845EA0325224B984203D05A
:1044700003F5806398420AD1F3680BB1082B27D16A
:1044800025F40065F36845EA032525F48065194B9A
:104490009C4203D003F580639C4211D1B369B3F50C
:1044A000007F00D0D3B97369B3F5807F00D0DBB94A
:1044B00027F44057736947EA0317B36947EA0317BC
:1044C0006760C4F81C807368E3632562BDE8F0810F
:1044D00041F298710848FCF7BBFCD1E741F2A571A5
:1044E0000548FCF7B5FCDEE741F2A6710248FCF78F
:1044F000AFFCDDE700000140D86C00082DE9F04179
:1045000004460F46036A23F480530362056AD0F819
:104510000480C66926F4E6460B6846EA032625F4BD
:1045200000558B6845EA03350F4B984203D003F5DD
:104530008063984209D17B69B3F5807F00D063B96D
:1045400028F480487B6948EA8318C4F80480E6614F
:104550007B6823642562BDE8F08141F2E471034881
:10456000FCF776FCECE700BF00000140D86C0008C7
:1045700070477047704770477047704710B50446E2
:1045800003681A6912F0020F11D0DA6812F0020FF4
:104590000DD06FF002021A610123037703689B6953
:1045A00013F0030F70D0FFF7E6FF00232377236893
:1045B0001A6912F0040F12D0DA6812F0040F0ED04C
:1045C0006FF004021A610223237723689B6913F4B6
:1045D000407F5FD02046FFF7CEFF0023237723687C
:1045E0001A6912F0080F12D0DA6812F0080F0ED014
:1045F0006FF008021A61042323772368DB6913F044
:10460000030F4ED02046FFF7B6FF00232377236821
:104610001A6912F0100F12D0DA6812F0100F0ED0D3
:104620006FF010021A61082323772368DB6913F403
:10463000407F3DD02046FFF79EFF0023237723686D
:104640001A6912F0010F03D0DA6812F0010F36D1A7
:1046500023681A6912F0800F03D0DA6812F0800F15
:1046600034D123681A6912F0400F03D0DA6812F0CF
:10467000400F32D123681A6912F0200F03D0DA6894
:1046800012F0200F30D110BDFFF774FF2046FFF766
:1046900073FF8AE72046FFF76DFF2046FFF76CFFA8
:1046A0009BE72046FFF766FF2046FFF765FFACE774
:1046B0002046FFF75FFF2046FFF75EFFBDE76FF084
:1046C00001021A612046FFF754FFC1E76FF0800234
:1046D0001A61204601F007F8C3E76FF040021A6143
:1046E0002046FFF74AFFC5E76FF020021A61204617
:1046F00000F0F8FFC7E700000368304A904212D08C
:10470000B0F1804F0FD0A2F57C4290420BD002F561
:104710008062904207D002F58062904203D002F599
:104720007842904203D123F070034A681343234A2E
:1047300090422AD0B0F1804F27D0A2F57C4290421F
:1047400023D002F5806290421FD002F58062904231
:104750001BD002F57842904217D002F57052904279
:1047600013D002F5806290420FD002F58062904231
:104770000BD0A2F59832904207D002F580629042A9
:1047800003D002F58062904203D123F44073CA68DB
:10479000134323F080034A69134303608B68C362A9
:1047A0000B688362054B984203D003F580639842FF
:1047B00001D10B690363012343617047000001408D
:1047C00000287AD010B5044603683D4A934237D09A
:1047D000B3F1804F34D0A2F57C42934230D002F541
:1047E000806293422CD002F58062934228D002F579
:1047F0008062934224D002F58062934220D002F579
:10480000704293421CD002F57052934218D002F5C8
:104810008062934214D002F58062934210D0A2F5D8
:10482000983293420CD002F58062934208D002F590
:104830008062934204D04FF489712248FCF708FB50
:10484000A3683BB1102B05D0202B03D0402B01D007
:10485000602B1AD123692BB1B3F5807F02D0B3F559
:10486000007F18D1A3690BB1802B1AD194F83D3089
:10487000EBB1022384F83D30211D2068FFF73CFF97
:10488000012384F83D30002010BD40F213110D4883
:10489000FCF7DEFADEE74FF48A710A48FCF7D8FA33
:1048A000E0E740F215110748FCF7D2FADEE784F89A
:1048B0003C302046FCF7A2FBDBE70120704700BF3D
:1048C00000000140D86C000800287AD010B50446DA
:1048D00003683D4A934237D0B3F1804F34D0A2F5FC
:1048E0007C42934230D002F5806293422CD002F594
:1048F0008062934228D002F58062934224D002F570
:104900008062934220D002F5704293421CD002F59F
:104910007052934218D002F58062934214D002F58F
:104920008062934210D0A2F5983293420CD002F5E7
:104930008062934208D002F58062934204D040F234
:104940005E212248FCF784FAA3683BB1102B05D006
:10495000202B03D0402B01D0602B1AD123692BB11F
:10496000B3F5807F02D0B3F5007F18D1A3690BB1F6
:10497000802B1AD194F83D30EBB1022384F83D30FE
:10498000211D2068FFF7B8FE012384F83D30002088
:1049900010BD40F25F210D48FCF75AFADEE74FF4F4
:1049A00018710A48FCF754FAE0E740F26121074821
:1049B000FCF74EFADEE784F83C302046FCF750FB6B
:1049C000DBE70120704700BF00000140D86C000801
:1049D00000287AD010B5044603683D4A934237D088
:1049E000B3F1804F34D0A2F57C42934230D002F52F
:1049F000806293422CD002F58062934228D002F567
:104A00008062934224D002F58062934220D002F566
:104A1000704293421CD002F57052934218D002F5B6
:104A20008062934214D002F58062934210D0A2F5C6
:104A3000983293420CD002F58062934208D002F57E
:104A40008062934204D040F29B412248FCF700FA76
:104A5000A3683BB1102B05D0202B03D0402B01D0F5
:104A6000602B1AD123692BB1B3F5807F02D0B3F547
:104A7000007F18D1A3690BB1802B1AD194F83D3077
:104A8000EBB1022384F83D30211D2068FFF734FE8E
:104A9000012384F83D30002010BD40F29C410D48B8
:104AA000FCF7D6F9DEE740F29D410A48FCF7D0F961
:104AB000E0E740F29E410748FCF7CAF9DEE784F8D8
:104AC0003C302046FFF754FDDBE70120704700BF74
:104AD00000000140D86C00082DE9F04104460E4664
:104AE000036A23F010030362056AD0F80480876923
:104AF00027F4E6470B6847EA032725F020058B6873
:104B000045EA0315224B984203D003F5806398428F
:104B10000AD1F3680BB1082B27D125F08005F36883
:104B200045EA031525F04005194B9C4203D003F5D7
:104B300080639C4211D1B369B3F5007F00D0D3B933
:104B40007369B3F5807F00D0DBB928F440687369DE
:104B500048EA8308B36948EA8308C4F80480A76177
:104B60007368A3632562BDE8F08141F24D71094885
:104B7000FCF76EF9D1E741F25B710648FCF768F982
:104B8000DEE741F25C710348FCF762F9DDE700BF44
:104B900000000140D86C000870B504460E4615466A
:104BA0003AB1042A05D0082A03D00C2A01D03C2AA5
:104BB00025D133684BB1102B07D0202B05D0302BDB
:104BC00003D0502B01D0402B1FD1B3680BB1022B67
:104BD00021D194F83C30012B00F0CD80012384F8E2
:104BE0003C30022384F83D300C2D52D8DFE805F02C
:104BF000195151515851515181515151A20040F612
:104C00003B515E48FCF724F9D3E740F63C515B4842
:104C1000FCF71EF9D9E740F63D515848FCF718F962
:104C2000D7E72368564A93422FD0B3F1804F2CD058
:104C3000A2F57C42934228D002F58062934224D0B0
:104C400002F58062934220D002F5784293421CD054
:104C500002F57052934218D002F58062934214D04C
:104C600002F58062934210D0A2F5983293420CD0A4
:104C700002F58062934208D002F58062934204D02C
:104C800040F649513D48FCF7E3F831462068FFF70C
:104C90007DFB012384F83D30002084F83C0070BD8A
:104CA0002368374A93421FD0B3F1804F1CD0A2F53E
:104CB0007C42934218D002F58062934214D002F5F0
:104CC0008062934210D002F5784293420CD002F5F4
:104CD0007052934208D0A2F59432934204D040F629
:104CE00053512648FCF7B4F831462068FFF7F4FE2C
:104CF000CFE72368224A934217D0B3F1804F14D0F4
:104D0000A2F57C42934210D002F5806293420CD00F
:104D100002F58062934208D002F57842934204D0B3
:104D200040F65D511548FCF793F831462068FFF7CF
:104D300087FBAEE72368124A934217D0B3F1804F46
:104D400014D0A2F57C42934210D002F580629342C7
:104D50000CD002F58062934208D002F5784293426B
:104D600004D040F667510548FCF772F831462068D8
:104D7000FFF7C4FB8DE7022091E700BFD86C000865
:104D80000000014070B504460D4616463AB1042AAB
:104D900005D0082A03D00C2A01D03C2A28D12B6840
:104DA000602B01D0702B29D1AB680BB1022B2BD11A
:104DB0002B690BB1042B2DD194F83C30012B00F062
:104DC0001781012384F83C30022384F83D300C2EF7
:104DD0006DD8DFE816F025006C006C006C007300E5
:104DE0006C006C006C00AC006C006C006C00DC00B3
:104DF00040F6EC517F48FCF72BF8D0E740F6ED5138
:104E00007C48FCF725F8CFE740F6EE517948FCF7EF
:104E10001FF8CDE740F6EF517648FCF719F8CBE7DD
:104E20002368754A93422FD0B3F1804F2CD0A2F55E
:104E30007C42934228D002F58062934224D002F54E
:104E40008062934220D002F5784293421CD002F552
:104E50007052934218D002F58062934214D002F54A
:104E60008062934210D0A2F5983293420CD002F5A2
:104E70008062934208D002F58062934204D040F6EB
:104E8000FB515C48FBF7E4FF29462068FFF77EFAF8
:104E90002268936943F0080393612268936923F0C1
:104EA000040393612268936929690B439361012389
:104EB00084F83D30002084F83C0070BD23684E4AE1
:104EC00093421FD0B3F1804F1CD0A2F57C42934295
:104ED00018D002F58062934214D002F580629342AA
:104EE00010D002F5784293420CD002F570529342F2
:104EF00008D0A2F59432934204D040F60C613D48AC
:104F0000FBF7A6FF29462068FFF7E6FD22689369B4
:104F100043F4006393612268936923F4806393618F
:104F200022689369296943EA01239361BFE72368F3
:104F3000314A934217D0B3F1804F14D0A2F57C428E
:104F4000934210D002F5806293420CD002F5806249
:104F5000934208D002F57842934204D040F61D6196
:104F60002448FBF775FF29462068FFF769FA226895
:104F7000D36943F00803D3612268D36923F00403A3
:104F8000D3612268D36929690B43D3618FE7236812
:104F9000194A934217D0B3F1804F14D0A2F57C4246
:104FA000934210D002F5806293420CD002F58062E9
:104FB000934208D002F57842934204D040F62E6125
:104FC0000C48FBF745FF29462068FFF797FA22684F
:104FD000D36943F40063D3612268D36923F4806307
:104FE000D3612268D369296943EA0123D3615EE76B
:104FF000022062E7D86C00080000014010B4846809
:1050000024F47F4442EA03230B43234383605DF887
:10501000044B704738B590F83C30012B00F03E82CD
:105020000D460446012380F83C30022380F83D30D1
:105030000B68B3F5805F11D0B3F5005F0ED06BB194
:10504000102B0BD0202B09D0302B07D0402B05D0B4
:10505000502B03D0602B01D0702B51D12268936864
:1050600023F47F4323F0770393602B68402B00F0F9
:10507000CF814BD9702B00F003817BD8502B00F0EF
:105080007581602B40F042812368B64A93421FD05D
:10509000B3F1804F1CD0A2F57C42934218D002F5A8
:1050A0008062934214D002F58062934210D002F5E0
:1050B000784293420CD002F57052934208D0A2F588
:1050C0009432934204D041F2DA11A748FBF7C0FEB4
:1050D0006B68B3F5004F05D023B1022B02D00A2B29
:1050E00040F08A81EB680F2B00F28C81EA686968D6
:1050F0002068FFF72EF960212068FFF73EF905E1EF
:1051000041F28B119848FBF7A3FEA7E7102B08D0BC
:1051100004D9202B05D0302B03D0F7E0002B40F032
:10512000F58023688F4A93421FD0B3F1804F1CD083
:10513000A2F57C42934218D002F58062934214D0CB
:1051400002F58062934210D002F5784293420CD06F
:1051500002F57052934208D0A2F59432934204D0E3
:1051600041F2FD118048FBF773FE29682068FFF7C4
:1051700004F9CBE0B3F5805F45D0B3F5005F40F0B4
:10518000C5802368774A934217D0B3F1804F14D07B
:10519000A2F57C42934210D002F5806293420CD07B
:1051A00002F58062934208D002F57842934204D01F
:1051B00041F2B6116C48FBF74BFEAB684BB1B3F54F
:1051C000805F06D0B3F5005F03D0B3F5405F40F0D9
:1051D000B6806B68B3F5004F05D023B1022B02D027
:1051E0000A2B40F0B280EB680F2B00F2B480EB6822
:1051F0006A68A9682068FFF701FF2268936843F492
:105200008043936082E02368564A93427ED0B3F194
:10521000804F7BD0A2F57C42934277D002F580622A
:10522000934273D002F5806293426FD002F58062A0
:1052300093426BD002F58062934267D002F57042D0
:10524000934263D002F5705293425FD002F58062C0
:1052500093425BD002F58062934257D0A2F5983218
:10526000934253D002F5806293424FD002F58062A0
:1052700093424BD041F297113B48FBF7E9FD45E0E3
:105280002368384A93421FD0B3F1804F1CD0A2F557
:105290007C42934218D002F58062934214D002F50A
:1052A0008062934210D002F5784293420CD002F50E
:1052B0007052934208D0A2F59432934204D041F246
:1052C0009E112948FBF7C4FDAB6843B1B3F5805F7D
:1052D00005D0B3F5005F02D0B3F5405F1DD16B6818
:1052E000B3F5004F04D01BB1022B01D00A2B1AD109
:1052F000EB680F2B1DD8EB686A68A9682068FFF778
:105300007DFE2268936843F077039360012384F85D
:105310003D30002084F83C0038BD41F2A111124814
:10532000FBF796FDDBE741F2A2110F48FBF790FD7A
:10533000DEE741F2A3110C48FBF78AFDDBE741F2FF
:10534000B9110948FBF784FD43E741F2BA11064859
:10535000FBF77EFD47E741F2BB110348FBF778FD01
:1053600045E700BF00000140D86C000823684C4AA4
:1053700093421FD0B3F1804F1CD0A2F57C429342E0
:1053800018D002F58062934214D002F580629342F5
:1053900010D002F5784293420CD002F5705293423D
:1053A00008D0A2F59432934204D041F2CA113D488C
:1053B000FBF74EFD6B68B3F5004F04D01BB1022B19
:1053C00001D00A2B0CD1EB680F2B0FD8EA68696863
:1053D0002068FEF7ABFF50212068FEF7CEFF95E76F
:1053E00041F2CD112F48FBF733FDECE741F2CE112E
:1053F0002C48FBF72DFDE9E741F2DD112948FBF7C9
:1054000027FD6FE641F2DE112648FBF721FD6DE630
:105410002368234A93421FD0B3F1804F1CD0A2F5DA
:105420007C42934218D002F58062934214D002F578
:105430008062934210D002F5784293420CD002F57C
:105440007052934208D0A2F59432934204D041F2B4
:10545000EA111448FBF7FCFC6B68B3F5004F04D06D
:105460001BB1022B01D00A2B0CD1EB680F2B0FD8EC
:10547000EA6869682068FEF759FF40212068FEF756
:105480007CFF43E741F2ED110648FBF7E1FCECE756
:1054900041F2EE110348FBF7DBFCE9E702203BE7B2
:1054A00000000140D86C000838B504460D4603687A
:1054B000414A93421FD0B3F1804F1CD0A2F57C42E9
:1054C000934218D002F58062934214D002F58062B4
:1054D000934210D002F5806293420CD002F58062B4
:1054E000934208D002F57042934204D040F26461C6
:1054F0003248FBF7ADFC2B686BB1102B0BD0202B87
:1055000009D0302B07D0402B05D0502B03D0602B77
:1055100001D0702B41D16B68802B01D0002B42D180
:1055200094F83C30012B44D0012384F83C30022312
:1055300084F83D3023685968986821F070012A6822
:105540000A435A6023681C4A93421AD0B3F1804F31
:1055500017D0A2F57C42934213D002F580629342A9
:105560000FD002F5806293420BD002F5784293424D
:1055700007D002F57052934203D0A2F594329342C1
:1055800004D120F080006A6810439860012384F8F9
:105590003D30002084F83C0038BD40F2656107488A
:1055A000FBF756FCB7E740F266610448FBF750FC96
:1055B000B6E70220F0E700BF00000140106D0008D0
:1055C00038B504460D460368444A934208D002F5B4
:1055D0008062934204D040F2A1614148FBF738FC5D
:1055E0002B68B3F5006F01D0002B4AD16B68B3F57F
:1055F000806F01D0002B4AD1AB6843B1B3F5807FF7
:1056000005D0B3F5007F02D0B3F5407F45D1EB68FC
:10561000FF2B48D82B69B3F5805F01D0002B48D110
:105620006B6913B1B3F5005F49D1EB69B3F5804FF6
:1056300001D0002B49D194F83C30012B4BD00123F1
:1056400084F83C30EB6823F44073AA68134323F4D6
:1056500080636A68134323F400632A68134323F4C6
:1056600080532A69134323F400536A69134323F4D4
:105670008043EA69134322685364002084F83C00A5
:1056800038BD40F2A2611648FBF7E2FBAEE740F2FC
:10569000A3611348FBF7DCFBAEE740F2A4611048BE
:1056A000FBF7D6FBB3E740F2A5610D48FBF7D0FB53
:1056B000B0E740F2A6610A48FBF7CAFBB0E740F248
:1056C000A7610748FBF7C4FBAFE74FF4D561044877
:1056D000FBF7BEFBAFE70220D2E700BF00000140AE
:1056E000106D0008704770470268D36823F4907308
:1056F000D3600268536923F001035361202380F8CB
:105700003A30704790F83930DBB2212B2AD18368C8
:10571000B3F5805F16D0036A5A1C02621A780368D8
:105720005A60C38C013B9BB2C384EBB90268D36857
:1057300023F08003D3600268D36843F04003D36052
:1057400000207047036A1B880268C3F30803536094
:1057500003691BB9036A02330362E2E7036A013398
:105760000362DEE702207047002070472DE9F04B0E
:1057700004464268A14B9A427ED8E36813B1B3F560
:10578000005F7FD123692BB1B3F5806F02D0B3F5F1
:10579000C06F7DD163694FF6F372134200D123B914
:1057A00040F6FE319648FBF753FB2268136923F459
:1057B0004053E1680B431361A36822691343626994
:1057C0001343E2691A432168CB6823F4164323F09C
:1057D0000C031343CB602268536923F44073A1691F
:1057E0000B435361E369B3F5004F57D02368854AF3
:1057F000934200F0CF8002F58062934200F0CA80AD
:1058000002F58062934200F0C58002F58062934207
:1058100000F0C080FDF762FF4FF0000C06184CEB63
:105820000C0716EB000847EB0C094FEAC90343EAE3
:1058300058734FEAC8029046994663689A009B0FD6
:1058400010EB08004CEB0901FAF7EAFC6E4DA5FBE2
:1058500000325109642202FB110213013233A5FB0D
:1058600003235B0903F0F00202EB011203F00F03C4
:10587000216813448B60BEE040F6FB316048FBF7C3
:10588000E7FA7AE740F6FC315D48FBF7E1FA79E7A1
:1058900040F6FD315A48FBF7DBFA7BE72368594AAB
:1058A000934241D002F5806293423DD002F580627E
:1058B000934239D002F58062934235D0FDF70EFF56
:1058C00083464FF0000C06184CEB0C0716EB000853
:1058D00047EB0C094FEAC90343EA58734FEAC80281
:1058E0009046994662680021921841EB01031BEB38
:1058F00008004CEB0901FAF793FC434DA5FB00327D
:105900005109642202FB1102D3003233A5FB0323A9
:105910005B095A0002F4F87202EB011203F007036C
:10592000216813448B6066E0FDF7E8FE80464FF087
:105930000009061849EB090716EB000B47EB090CA9
:105940004FEACC0343EA5B734FEACB0293469C4693
:1059500062680021921841EB010318EB0B0049EB40
:105960000C01FAF75DFC284DA5FB003251096422B9
:1059700002FB1102D3003233A5FB03235B095A005B
:1059800002F4F87202EB011203F0070321681344DA
:105990008B6030E0FDF7B2FE4FF00009061849EBCE
:1059A000090716EB000B47EB090C4FEACC0343EA5F
:1059B0005B734FEACB0293469C4663689A009B0F49
:1059C00010EB0B0049EB0C01FAF72AFC0E4DA5FB7E
:1059D00000325109642202FB110213013233A5FB8C
:1059E00003235B0903F0F00202EB011203F00F0343
:1059F000216813448B60BDE8F08B00BFA037A00086
:105A00004C6D0008001001401F85EB512DE9F0415D
:105A100005460F4616469846069C2B681B6837EAD3
:105A200003030CBF01230023B3421DD1B4F1FF3F98
:105A3000F3D02CB1FBF744FEA0EB0800A042ECD958
:105A40002A68D36823F4D073D3602A68536923F09B
:105A500001035361202385F8393085F83A3000235B
:105A600085F83830032000E00020BDE8F081000018
:105A7000002800F09B8010B504468369002B55D0A8
:105A800003684B4A934210D0A2F54C4293420CD08B
:105A900002F58062934208D002F54C42934204D052
:105AA00040F24B114348FBF7D3F9A36943B1B3F577
:105AB000807F05D0B3F5007F02D0B3F5407F2FD1B2
:105AC000A36813B1B3F5805F5ED1E36913B1B3F599
:105AD000004F5FD194F83930002B61D0242384F833
